:10000000F87F0020AD47010013560000375600006E
:1000100097580000DF5A0000035B0000000000005A
:10002000000000000000000000000000CB5C0000A9
:10003000735E00000000000031130100CB120100CC
:100040001DFC0000A95D0100B15D0100B95D01006A
:10005000C15D0100C95D0100D15D0100D95D0100F4
:10006000E15D0100E95D0100F15D0100F95D010064
:10007000015E0100095E0100115E0100195E0100D0
:10008000215E0100CD5E0100CD5E0100CD5E01006C
:10009000CD5E0100CD5E0100CD5E0100CD5E0100B0
:1000A000295E0100315E0100395E0100415E010000
:1000B000CD5E0100CD5E0100CD5E0100495E010014
:1000C000515E0100595E0100615E0100695E010040
:1000D000715E0100CD5E0100CD5E0100CD5E0100CC
:1000E000CD5E0100CD5E0100CD5E0100CD5E010060
:1000F000CD5E0100CD5E0100CD5E0100CD5E010050
:10010000FD4D0000074E0000114E00001B4E000088
:10011000CD5E0100CD5E0100CD5E0100CD5E01002F
:10012000CD5E0100CD5E0100CD5E0100CD5E01001F
:10013000CD5E0100CD5E0100CD5E0100CD5E01000F
:10014000CD5E0100CD5E0100CD5E0100CD5E0100FF
:10015000CD5E0100795E0100CD5E0100CD5E010043
:10016000CD5E0100CD5E0100CD5E0100CD5E0100DF
:10017000CD5E0100CD5E0100B9DE0000C5DE0000ED
:10018000D1DE0000ADDE0000DDDE0000E9DE0000B3
:10019000F5DE00000DDF000019DF000025DF0000A4
:1001A00001DF000031DF00003DDF000049DF00001B
:1001B000CD5E0100CD5E0100CD5E0100CD5E01008F
:1001C000CD5E0100CD5E0100CD5E0100CD5E01007F
:1001D000CD5E0100CD5E0100CD5E0100CD5E01006F
:1001E000CD5E0100CD5E0100CD5E0100CD5E01005F
:1003F000CD5E0100CD5E0100CD5E0100FFFFFFFF7D
:10040000FFFFFFFFFFFFFFFFFFFFFFFFFE7AFFFF82
:1004100010B501F07DF8D0F8B04001F079F8D0F8CF
:10042000B400002000E0401C02280EDADFF8181BA0
:1004300002011144497894F89F209142F3D1DFF8EA
:10044000081B00010844406802E0DFF8FC0A40682D
:1004500010BD10B501F05CF8D0F8B04001F058F8CC
:10046000D0F8B400002000E0401C02280DDADFF8CC
:10047000D81A02011144497894F89F209142F3D18F
:10048000DFF8C41A0001085C00E0012010BD10B5BF
:1004900001F03EF8D0F8B04001F03AF8D0F8B400DE
:1004A000012084F89F0000F005F80FF2E96001F0E8
:1004B00037F910BD2DE9F84199B001F029F8D0F8CD
:1004C000B04001F025F8D0F8B450DFF8880A696927
:1004D0008847FFF79DFF0600300001F0ADFA0200EB
:1004E000D2B20121300001F084FA00220221DFF8AB
:1004F0006C0A01F07EFA00220321DFF8640A00682A
:1005000001F077FA93A069698847DFF8500A6969B2
:100510008847002600272EE0DFF82C0A390108441E
:1005200043683200DFF83C1A684601F0EBFB68468E
:1005300001F008FC401C652808D32E208DF86000CF
:100540003E208DF8610000208DF86200012216F136
:100550000801C9B2684601F04CFA04EB8600C76591
:10056000761C07E0DFF8E0093901405C94F89F1041
:100570008842D1D07F1C022FF4DB84F89C600027D6
:100580006CE0012116F10800C0B201F01EFA320041
:10059000DFF8D419684601F0B5FB684669698847F9
:1005A000684601F0CFFB804618F10108DFF8BC096E
:1005B00069698847DFF8B809402101FB07F1084461
:1005C00040686969884764A069698847DFF8A009BD
:1005D000402101FB07F10844406801F0B3FB10EB38
:1005E000080818F10208DFF88C09696988473800A3
:1005F000020092B26321684600F0AFFE684601F047
:10060000A1FB18EB0000652814D32E206946D8F111
:100610000002114481F861003E206946D8F10002D1
:10062000114481F8620000206946D8F10008414475
:1006300081F8630068466969884704EB8600C765EE
:10064000761C0AE0DFF82809402101FB07F1084485
:10065000406A94F89F10884293D07F1C032FF1DBEF
:1006600084F89E601AB0BDE8F0813EB51C0003011D
:100670000B441B79012B0CD06BD3032B32D01CD332
:10068000052B59D041D3072B62D056D3082B60D00D
:100690005FE003010B449B6800010844C06802EB63
:1006A00000016D461A00280001F076FB9DF800203D
:1006B000A8A1200001F026FB4BE003010B449B683E
:1006C00000010844C06802EB00010DF102051A00A8
:1006D000280001F061FBBDF802209EA1200001F07E
:1006E00011FB36E003010B449B6800010844C0681D
:1006F00002EB000102AD1A00280001F04DFB029A46
:1007000094A1200001F0FEFA23E003010B449B6852
:1007100000010844C06802EB000101AD1A00280086
:1007200001F03AFB019801F097FB02000B00B7A122
:10073000200001F0E7FA0CE00BE000010844C0687B
:1007400002EB0003B2A26321200001F0A9FB00E04C
:10075000FFE737BD0D0A00003D2000002DE9F84FEE
:1007600088B081468B4615009A46129C139E00F075
:10077000CFFED0F8B00000F0CBFED0F8B47007A9DF
:10078000484601F0BFFB80465946484601F0C4FB8D
:1007900081462100C9B25046C0B201F016F92801C5
:1007A00058F80010DFF8E00C7A6990471AF1010A56
:1007B000DFF8A807796988471AF1010A2100C9B250
:1007C0005046C0B201F001F933004A4641462800C4
:1007D000FFF74BFF280140440079062803D1280188
:1007E0004044846800E02024DFF8A00C7969884741
:1007F00032002100300001F0BEF90400DFF8900C57
:1008000079698847002C40F0A18028014044007994
:1008100001280DD0C0F09A80032840D023D30528AA
:100820006DD054D3072877D06AD3082875D08DE0CF
:1008300006AA48A1300001F083FB012812D10698D6
:100840008DF8000028014044826869462801404430
:10085000C06809EB0004200001F09EFA0120DFF8D7
:10086000341C087072E005AA3AA1300001F068FB60
:10087000012813D10598ADF8020028014044826890
:100880000DF1020128014044C06809EB000420007A
:1008900001F082FA0120DFF8FC1B087056E004AA80
:1008A0002CA1300001F04CFB01280FD1280140445D
:1008B000826804A928014044C06809EB00042000B4
:1008C00001F06AFA0120DFF8CC1B08703EE003AAB1
:1008D0004EA1300001F034FB01280FD12801404423
:1008E000826803A928014044C06809EB0004200085
:1008F00001F052FA0120DFF89C1B087026E025E089
:1009000028014044C0684844310001F02DFB01201B
:10091000DFF8801B087019E018E002AA0DA1300072
:1009200001F00EFB012811D10298019028014044EA
:10093000826801A928014044C06809EB0004200036
:1009400001F02AFA0120DFF84C1B087009B0BDE85D
:10095000F08F0000256400002DE9FC4705000E0023
:1009600014001F00DDF8288000F0D2FDD0F8B000A0
:1009700000F0CEFDD0F8B4903900C9B22000C0B26A
:1009800001F023F83200DFF8101B404601F0BAF9FD
:100990004046D9F814108847641C6946280001F0C5
:1009A000B1FA82463100280001F0B6FA05000026AF
:1009B00026E03900C9B23019C0B201F006F83200A1
:1009C000DFF8D81A404601F09DF94046D9F81410D6
:1009D000884730015AF80020DFF8EC1A404601F051
:1009E00091F94046D9F81410884743462A005146E9
:1009F0003000FFF73AFE4046D9F814108847761CBD
:100A000000988642D5D3BDE8F38700002566000034
:100A1000257300002DE9F8479DB0060000F078FD31
:100A2000D0F8B00000F074FDD0F8B4500024DFF826
:100A3000240569698847300001F056FA0700786894
:100A400000F0FAFF0200D2B20121786800F0D1FF75
:100A500000220221DFF8040500F0CBFF0022032171
:100A6000DFF8680A006800F0C4FF88A06969884759
:100A7000DFF8E804696988477E78BF685FF0080896
:100A80005FF0010904A800904B46DBB24246D2B2A7
:100A900021003000FFF760FF4FE0781E844201D351
:100AA000002400E0641C04A800904B46DBB24246E0
:100AB000D2B221003000FFF74FFF3EE0002C01D101
:100AC0007C1E00E0641E04A800904B46DBB2424648
:100AD000D2B221003000FFF73FFF2EE09DF8080062
:100AE00030380A2841D29DF808A0BAF1300A03A98B
:100AF000300001F007FA039882451ED204A8019045
:100B00000120009018F11103DBB2524621003000A1
:100B1000FFF724FE012118F11100C0B200F055FFCB
:100B20009CA06969884704A800904B46DBB2424606
:100B3000D2B221003000FFF70FFF4FF47A7102A804
:100B40002A6990470028F8D19DF808004D28A4D0C4
:100B50004E28B3D0522805D06D289ED06E28ADD037
:100B60007228BBD11EB0BDE8F0879DF8080061383F
:100B7000062804D29DF808A0BAF1610AB7E79DF8EB
:100B800008004138062804D29DF808A0BAF1410AAD
:100B9000ADE7D2E738B5050000F0BAFCD0F8B040B8
:100BA00000F0B6FCD0F8B4002800C0B230286BDBEF
:100BB0002800C0B24D2803D02800C0B26D2802D151
:100BC00000F0D6FE60E02800C0B2522803D0280012
:100BD000C0B272280FD194F89F00012806D0FFF709
:100BE00038FC84F89F00FFF765FC4DE000F0D6FE6E
:100BF00000F0A2FD48E02800C0B200F069FC01004E
:100C0000C9B2102940DA010094F89E20C9B291427D
:100C10003AD20021010094F89C20C9B2914201D23D
:100C200001210BE00100C9B294F89D2094F89C309A
:100C30009A18914201DA022100E00321C9B2012988
:100C400004D021D3032917D00DD31DE0BE49C0B273
:100C500004EB8000C06D00010844407884F89F00D8
:100C6000FFF728FC10E0C0B204EB8000C06DFFF776
:100C7000D1FEFFF71FFC07E0C0B204EB8000C06D9F
:100C8000C4F8A00000F004F831BD00000D0A000017
:100C900038B500F03DFCD0F8B04000F039FCD0F899
:100CA000B450022084F8A50194F8A501401C84F8F2
:100CB000A50194F8A50117286BDA94F8A501D0F1E5
:100CC000190084F8A401002194F8A401801EC0B288
:100CD00000F07BFEA649D4F8A0204020424301EB5F
:100CE00002004168DFF814086A6990479B48696907
:100CF0008847D4F8A000020092B24FF4807114F13A
:100D0000A40000F02AFB002194F8A40100F05DFE8D
:100D100020A069698847002194F8A40100F055FEDD
:100D200088A069698847DFF864076969884714F112
:100D3000A4006969884714F1A40001F003F80028B1
:100D400010D0811C642291FBF2F184F8A611811C61
:100D5000642291FBF2F302FB131184F8A71184F8CB
:100D6000A80108E0002084F8A601022084F8A70169
:100D7000002084F8A80194F8A71194F8A40194F82D
:100D8000A6211018C0B200F020FE0FF20D0000F0F6
:100D9000C7FC31BD1B5B4A0070B5060000F0B8FB14
:100DA000D0F8B04000F0B4FBD0F8B4503000C0B27E
:100DB000082808D00D2867D01B285AD07E283BD0A1
:100DC0007F2839D082E094F8A80100281CD094F83C
:100DD000A801401E84F8A801002094F8A81121441D
:100DE00081F8A40094F8A701022808DA642084F8A6
:100DF000A70194F8A601401E84F8A60104E094F827
:100E0000A701401E84F8A70194F8A71194F8A40143
:100E100094F8A6211018C0B200F0D7FD4BA0696964
:100E2000884794F8A71194F8A40194F8A621101803
:100E3000C0B200F0CAFD84E0002084F8A6010220C0
:100E400084F8A701002084F8A801002094F8A811D4
:100E5000214481F8A40094F8A71194F8A40194F80F
:100E6000A6211018C0B200F0B0FD39A0696988470A
:100E700067E0DFF81C0669698847FFF71BFBDFF8AE
:100E8000800600F04DFC5CE0002094F8A81121449D
:100E900081F8A400D4F8A000010089B214F1A400E4
:100EA00000F06AF8D4F8A00080B200F0F9FA01204E
:100EB000DFF8E0150870DFF8D80569698847FFF7A3
:100EC000F9FADFF83C0600F02BFC3AE03000C0B243
:100ED00001F056F8002805D13000C0B201F05AF8F0
:100EE00000282ED094F8A801204480F8A460F6B21F
:100EF000310019A06A69904794F8A801FF2816D01C
:100F000094F8A801401C84F8A80194F8A70164286B
:100F100008D1012084F8A70194F8A601401C84F8A8
:100F2000A60104E094F8A701401C84F8A70194F8F6
:100F3000A71194F8A40194F8A6211018C0B200F0EB
:100F400044FD70BD3E000000CC4A010020000000BE
:100F50001B5B4A00F056010025630000644201005B
:100F6000CC82FF1FE45B0100685D0100705D010041
:100F70001C330100785D010038B505000C00DFF876
:100F80008415220092B24020424301EB0200007C13
:100F9000062816D0DFF87015280001F023F8002885
:100FA00004D131202870002068700AE0DFF85C1559
:100FB000280001F017F8002803D130202870002005
:100FC0006870DFF84015220092B24020424301EBE6
:100FD0000200007C012813D0C0F0BE81032800F07D
:100FE000B1805ED3052800F0B781C0F041810728A9
:100FF00000F0B181C0F08381082800F0EE80ABE101
:101000000A226946280001F03EF8DFF8F8242300A0
:101010009BB240214B4302EB030191ED070ABDEE69
:10102000C00A10EE101A0200C9B2D2B291420DD21B
:10103000DFF8D014220092B24020424301EB0200BC
:1010400090ED070ABDEEC00A10EE100ADFF8B424D6
:1010500023009BB240214B4302EB030191ED060AB2
:10106000BDEEC00A10EE101A0200D2B2C9B28A4216
:101070000DD2DFF89014220092B24020424301EBDF
:10108000020090ED060ABDEEC00A10EE100ADFF86D
:101090007424A4B240214C4302EB0401C9680870D7
:1010A0005AE10A226946280000F0EDFFDFF85424D7
:1010B00023009BB240214B4302EB030191ED070A51
:1010C000BDEEC00A10EE101A020089B292B291422F
:1010D0000DD2DFF83014220092B24020424301EBDF
:1010E000020090ED070ABDEEC00A10EE100ADFF80C
:1010F000142423009BB240214B4302EB030191EDEA
:10110000060ABDEEC00A10EE101A020092B289B2B1
:101110008A420DD2DFF8EC13220092B24020424303
:1011200001EB020090ED060ABDEEC00A10EE100AB7
:10113000DFF8D023A4B240214C4302EB0401C9687C
:10114000088009E10A226946280000F09CFFDFF8C8
:10115000B42323009BB240214B4302EB030191EDEA
:10116000070ABCEEC00A10EE101A81420DD2DFF859
:101170009413220092B24020424301EB020090ED12
:10118000070ABCEEC00A10EE100ADFF8782323002D
:101190009BB240214B4302EB030191ED060ABCEEEA
:1011A000C00A10EE101A88420DD2DFF85813220040
:1011B00092B24020424301EB020090ED060ABCEEE1
:1011C000C00A10EE100ADFF83C23A4B240214C43C1
:1011D00002EB0401C9680860BEE00A2269462800E3
:1011E00000F051FFDFF81C2323009BB240214B434A
:1011F00002EB030191ED070ABDEEC00A10EE101AD2
:1012000081420DDADFF8FC12220092B24020424304
:1012100001EB020090ED070ABCEEC00A10EE100AC6
:10122000DFF8E02223009BB240214B4302EB030195
:1012300091ED060ABDEEC00A10EE101A88420DDAD2
:10124000DFF8C012220092B24020424301EB0200BC
:1012500090ED060ABCEEC00A10EE100ADFF8A422D8
:10126000A4B240214C4302EB0401C968086073E05A
:101270006946280000F00DFF51EC100B00F00EFF46
:1012800000EE100ADFF87C12220092B240204243A6
:1012900001EB0200D0ED070AF4EE400AF1EE10FA7D
:1012A00009D5DFF86012220092B24020424301EBE0
:1012B000020090ED070ADFF84C12220092B24020A3
:1012C000424301EB0200D0ED060AB4EE600AF1EEF3
:1012D00010FA09D5DFF82C12220092B240204243C6
:1012E00001EB020090ED060ADFF81812A4B24020CC
:1012F000444301EB0400C06880ED000A2CE0DFF8F5
:101300000412220092B24020424301EB0200828E7E
:10131000521E2900DFF8EC312500ADB240204543D4
:1013200003EB0500C06800F0EDFEDFF8D8112200E5
:1013300092B24020424301EB0200C168DFF8C421B1
:10134000A4B24020444302EB0400808E08440021F4
:1013500000F8011C00E0FFE731BDFEB504000D0000
:101360001600DFF8A011320092B24020424301EB98
:101370000200C168DFF88C2133009BB24020434358
:1013800002EB0300007C01280AD0022817D00328B2
:1013900024D0042840D0062854D008282DD071E04D
:1013A0000B78DFF86011B6B24020464301EB06002F
:1013B000C26AADB22900200000F072FD62E00B8825
:1013C000DFF84011B6B24020464301EB0600C26A86
:1013D000ADB22900200000F063FD53E00B68DFF898
:1013E0002411B6B24020464301EB0600C26AADB2FA
:1013F0002900200000F054FD44E00B68DFF80411E0
:10140000B6B24020464301EB0600C26AADB22900E5
:10141000200000F045FD35E091ED000A10EE100AC5
:1014200000F01AFDCDE90001DFF8D810B6B2402077
:10143000464301EB0600C26AADB22900200000F06D
:101440002FFD1FE02A00DFF8BC303700BFB240207C
:10145000474303EB0700808E92B2824202D2ADB2C4
:101460006D1E08E0DFF89C20B6B24020464302EB38
:101470000600858E6D1E2A00200000F043FE00202D
:101480006055FFE7F7BD000004570100805D0100D3
:10149000885D010007E0FF1F18570100F05B0100A5
:1014A00080B5184A03009BB240214B4302EB030175
:1014B000096B002906D0134A80B2402148431044EA
:1014C000006B804701BD0000905D0100D082FF1FCE
:1014D0000100C9B230390A2902D210F00F000BE026
:1014E0000100C9B26139062903D2573810F00F0044
:1014F00002E0373810F00F0070470000185101006B
:10150000950B00001C330100985D0100A05D0100F7
:10151000EFF3108172B60248006881F310887047BB
:10152000C8D7FF1F2DE9F84187B080460C005FF057
:10153000FF36002C00D02660002713E0DFF8680794
:1015400050F82600C0F86C523200DFF86017DFF860
:10155000580750F8260010F51C7000F0D3FB002E41
:1015600033D57F1C022F30D2DFF84407C05D00283E
:10157000F5D10120DFF83817C8553E0045464FF435
:10158000247000F021FEDFF8201741F82600DFF874
:10159000180750F826000028D0D1DFF80C0750F8C3
:1015A000260000F016FEDFF80C0750F8260000F0C9
:1015B00010FE15F11C00A96988470020DFF8F0161D
:1015C0008855012008B0BDE8F081002E01D501202A
:1015D000F8E7290015F11C00AA6890470028DCD123
:1015E0004FF4006000F0F0FDDFF8C81641F8260067
:1015F000DFF8C00650F826000028CED0B8200690AC
:1016000001200590012004900E2003900E200290EE
:101610004FF400600190DFF89C0650F8260000901F
:10162000DFF8840650F8260010F1BC030FF22902FF
:10163000DFF8740650F8260010F51C71DFF8680614
:1016400050F8260000F002FE0028A6D1002C00D0A1
:1016500026600020B6E7000038B50400FFF758FF09
:10166000C0F8B040FFF754FFD4F8B011C0F8B41080
:10167000FFF74EFFD0F8B040FFF74AFFD0F8B45064
:101680004FF4FA6000F092FEDFF83006696988478F
:1016900000F06EF907E0A06D00281ED09DF8000054
:1016A000A16D884719E04FF47A7168462A6990471E
:1016B000002812D19DF8000000280ED09DF80000EF
:1016C0001B28E8D1A06DDFF8F8158842E3D0DFF8D9
:1016D000EC056969884700F04BF9206D54F820004B
:1016E000DFF8E01588421AD10021172000F06DF9CB
:1016F000DFF8D415DFF8D4056A6990470021182077
:1017000000F063F900F08AFE4FF47A7148434FF419
:101710007A71B0FBF1F1DFF8B8056A699047C2E76A
:1017200038B50400FFF7F4FED0F8B050FFF7F0FE34
:10173000D0F8B400AC6531BD38B5FFF7E9FED0F89C
:10174000B040FFF7E5FED0F8B450DFF870056969E6
:101750008847206D54F82000002823D0206D54F8CD
:101760002000006800F068F90200D2B20121206D6B
:1017700054F82000006800F03CF900220221DFF854
:10178000540500F036F900220321206D54F82000A2
:10179000406800F02EF9A5A069698847DFF8340594
:1017A0006969884731BD70B505000C00FFF7B0FED0
:1017B000D0F8B060FFF7ACFED0F8B4002000C0B2A3
:1017C00000F036FE002804D0E4B2200000F03BFE1A
:1017D0000400002104E028680078002811D0491C8A
:1017E000306D56F8200080680C2211FB02F2104484
:1017F0002860286800782200D2B29042EBD1012004
:1018000000E0002070BDF8B505000E000024FFF7D1
:101810007FFED0F8B000FFF77BFED0F8B4704FF435
:101820007A7168463A699047002814D19DF8000003
:10183000082809D0112806D0132804D01B2812D05C
:101840007F2801D013E006E0002C04D0641E6D1E3A
:1018500077A079698847701E844211DA9DF80000EC
:101860000D28DCD10CE00020287001200BE071A0D5
:10187000796988479DF8000028706D1C641CEAE7B0
:10188000002028700020F2BD10B588B0FFF740FEA0
:10189000D0F8B040FFF73CFED0F8B410D4F8AC015B
:1018A000002801D0002016E0DFF82C0449698847A1
:1018B0001F216846FFF7A7FF00280BD1DFF81C1493
:1018C000684600F08FFB002804D10120C4F8AC0169
:1018D000002000E0012008B010BD7CB50500FFF736
:1018E00017FED0F8B040FFF713FED0F8B46029001F
:1018F000C9B26846FFF757FF002838D000988068C3
:10190000002821D000988068DFF8D413884205D1E0
:10191000FFF7BAFF002801D0FFF70EFF206D401C33
:10192000206500988068216D44F82100FFF704FFCE
:101930000098406800281AD000984068A0650020F0
:1019400000994968884712E000984068002804D14F
:1019500000F024F8FFF7F0FE09E0DFF8600371699A
:1019600088470020009949688847FFF7E5FE73BD66
:1019700010B5FFF7CDFDD0F8B040FFF7C9FDD0F8A6
:10198000B40000202065DFF83C03216D44F82100FD
:10199000FFF7D2FEDFF84C03A06510BD10B5FFF7CE
:1019A000B7FDD0F8B040FFF7B3FDD0F8B400206D1C
:1019B000002806D00020216D44F82100206D401E33
:1019C0002065DFF82003A06510BD38B504000D00C8
:1019D000FFF79EFDD0F8B000FFF79AFDD0F8B430C5
:1019E000EDB22A00E4B22100DFF8FC025B699847FF
:1019F00031BDF8B504000D001600FFF789FDD0F8E1
:101A0000B000FFF785FDD0F8B470F6B23200EDB249
:101A10002900DFF8D4027B699847200000F092F992
:101A200001002000FA689047F1BD00000D0A000097
:101A3000082008002A000000002200E0521C1100CB
:101A400009B2415C0029F9D112B2D2F1640202203C
:101A500092FBF0F0C0B270472DE9FE4305000E0086
:101A600017001C00002000208DF8000001A8DFF8FE
:101A70007C120A680260FFF74BFDD0F8B000FFF758
:101A800047FDD0F8B4805FF0000900213800C0B2F3
:101A9000FFF79BFF82A0D8F81410884781A0D8F8E0
:101AA00014108847002C14D0200000F04BF9814618
:101AB000701E814501DBB6F1010949462000D8F8C6
:101AC0000C209047002002E0215C2954401C48452E
:101AD000FAD342F210716846D8F8102090470028D7
:101AE0000ED19DF8000008281CD1B9F1010F36DB9A
:101AF000B9F10109042101A8D8F80C2090472EE083
:101B0000012403E00024002005F80900002138002A
:101B1000C0B2FFF75AFF62A0D8F81410884720001F
:101B2000BDE8FE839DF800001B2820D09DF8000032
:101B30000D2814D09DF800000A2810D09DF8000050
:101B400000280CD001216846D8F80C2090479DF859
:101B5000000005F8090019F10109B14509DA9DF8FD
:101B600000000D28CED0B9F1500FB2DBCAE7012436
:101B7000CCE70124CAE72DE9FC4105000E00140062
:101B8000002001A85A490A680260FFF7C1FCD0F89A
:101B9000B000FFF7BDFCD0F8B480002741A0D8F812
:101BA00014108847002C13D0200000F0CBF8070059
:101BB000701E874200D3771E39002000D8F80C2011
:101BC0009047002002E0215C2954401CB842FAD31F
:101BD00042F210716846D8F81020904700280CD1C6
:101BE0009DF8000008280AD1012F24DB7F1E042164
:101BF00001A8D8F80C2090471DE0012027E09DF8AF
:101C000000001B281ED09DF800000D2813D09DF861
:101C100000000A280FD09DF8000000280BD0701E8D
:101C2000874208D201216846D8F80C2090479DF8D9
:101C30000000E8557F1C9DF800000D2804D0502FAF
:101C4000C6DB01E0012002E000200021E955BDE8EB
:101C5000F681F0B591B005000C0016001F00226857
:101C600015A109A800F04EF809AB2A001F2101A810
:101C7000FFF7F2FE002810D16A460FA101A800F07C
:101C80005FF9012809D10098874200DA009700988F
:101C9000B04200DA00960098206011B0F0BD00005C
:101CA0001B5B4B003E00000020D6FF1F9C5B010029
:101CB000FADFFF1F18D6FF1F25640000C856010079
:101CC000990D0000A85B010050540100DC56010092
:101CD00080590100184201001C490100505D0100BB
:101CE000C05B0100DB18000090590100C45E0100D8
:101CF000C85E010080B500F065FC01BD80B500F054
:101D000017FD01BD0CB430B583B00A4606A9029197
:101D1000044600250194009502AB01A908487844C7
:101D20001E3000F011FD019A157000284EBF0446C8
:101D30000198041B204603B030BC5DF80CFB00BFCB
:101D40009B02000000F10103810704D010F8011B81
:101D5000820781B1FAD10268A2F10131914311F0F9
:101D6000803104BF50F8042FF6E709BAB1FA81F1C7
:101D700000EBD100401CC01A704703681AB95A1E04
:101D8000026008467047197811B94FF0FF3070476C
:101D9000591C01601878704762B38B0708D0521E37
:101DA00011F8013B00F8013B00F024808B07F6D1CD
:101DB000830740F0208000BF103A07D330B4B1E869
:101DC0003810103AA0E83810F9D230BC530724BFBD
:101DD000B1E80810A0E8081044BF51F8043B40F8EF
:101DE000043BD20724BF31F8022B20F8022B44BF5A
:101DF0000B7803707047121F17D35B0009D151F89D
:101E0000043B20F8023B1B0C121F20F8023BF6D2C9
:101E10000BE051F8043B00F8013B1B0A20F8023BA1
:101E20001B0C121F00F8013BF3D238BF121D521ECB
:101E300024BF11F8013B00F8013BF8D870478268D5
:101E4000521C8260426832B10268531C03601170F8
:101E50004168491E41607047C0F3C75181B1FF29F5
:101E600006D0C110400721F0E04101F160517047F8
:101E700041020CBF40F4E0016FF0004100207047C8
:101E800000F0004100020AD0B0FA80FC00FA0CF029
:101E900001F16051A1EB0C5101EBD02140057047DD
:101EA00008B438B585B009AC002504940395002921
:101EB0000EBF01950190491E0291009504AB01A946
:101EC000074878441A3000F03FFC019901B10D70C9
:101ED000002858BF039806B030BC5DF808FB00BF6F
:101EE0005FFFFFFF0020704710B50400FFF7FAFF07
:101EF000844205D210490C20444301EB040000E069
:101F00000D4810BD002803D1072008600B4802E0EF
:101F10000020086000207047002809D1062901D35D
:101F2000002006E0034A2120414302EB010000E0CB
:101F300000207047D080FF1F7881FF1FD03B010039
:101F40000DB4C0B50A4604A800210190009101AB70
:101F500003A9044878440C3001F0AAFB06BC5DF8E4
:101F600010FB00BF17FEFFFF5FEA000C11F8012B0A
:101F700000F8012B12B111F8012BF9E76046704708
:101F8000A0F10901052901D3202801D101207047C2
:101F90000020704720281CD0A0F120015F2924BF19
:101FA000A0F161021A2A16D3A0F141011A2924BF17
:101FB000A0F121020F2A0ED3A0F13A0106290AD975
:101FC000A0F15B02062A06D37B3804288041C00FAB
:101FD000704700207047012070470268531C03605F
:101FE0001170704710F8012B11F8013B0AB19A42A9
:101FF000F8D0D01A70472DE9FC4180460D001C46F0
:1020000008BF6D46474600E07F1C3878A0F1090103
:102010000529F9D32028F7D006462D2E18BF2B2EE0
:1020200008D117F8010FA0F1090105290AD32028CA
:1020300008D000E02B262946384602F0BFF929686F
:102040008F4204D1C5F800800020BDE8F6812B2E18
:1020500004D1B0F1004F06D2BDE8F6812D2EFBD1A0
:10206000B0F1004F0CD9AFF300800CB1012020601B
:102070002D2E14BF6FF000404FF00040BDE8F681F8
:102080004042BDE8F6810023B5E7E00041EC100BCB
:1020900001BD80B502F0DEFBF8E7200001F0004250
:1020A0008B1AA3F16051B1F5801F0ADBB1F17F6F8C
:1020B0001FD242EAC102C10071F1004142EB5070EF
:1020C00070470B15C3F10903212B10D2890241EA95
:1020D000905180020128494141F0004121FA03F06A
:1020E000C3F12003994071F1004150417047100045
:1020F00070476FF0000013EB103F5CBF000E42EA28
:10210000C050704701B58B071AD1830724D1121F25
:1021100021D351F8043BA3F1013C2CEA030C1CF041
:10212000803C04BF40F8043BF1E79CFA8CFCBCFA0D
:102130008CF1C1F118018B40CB4040F8043B13E017
:10214000042A09D311F8013B521E00F8013B5BB190
:102150008B07F7D1D9E7121D5AB111F8013B521E76
:1021600000F8013B03B1F8D111001CBF002202F0BE
:1021700079FB01BD80B52D482D4908602D492C48BB
:102180000068091A491C2C480160342000902A4834
:102190000368274802682949294802F093FB02BDD9
:1021A00038B504000B0022006946254802F0FAFB0E
:1021B000002801D0002006E00022009D2100280018
:1021C00002F04CFB009832BD80B50021FFF7E8FF1C
:1021D00002BD80B502F032FC01BD00B587B013002E
:1021E000154A1268026003A8029004A8019005A88D
:1021F00000900A0006A9124802F04AFC07B000BD90
:1022000080B586B003AA04A905A8FFF7E6FF0398E6
:10221000029004980190059800900A4B04227621C0
:10222000094800F082F907B000BD000010E1FF1F6F
:10223000DCD5FF1FF87F0020E0D5FF1F705901009B
:10224000E4D5FF1FD8440100385401002DE9F44FB4
:1022500086B004000F009A46109DDDF84480DDF83A
:1022600048900026002C01D10E267AE01698B82856
:1022700001D00E2675E0EFF3108072B6454909686B
:10228000491C444A116080F3108800204249D1F86B
:1022900000B029004144491E002216E0DBF80C3052
:1022A0009D4205D3DBF810309D4201D2002501206C
:1022B000DBF80C30994205D3DBF81030994201D29B
:1022C00000250120DBF888B0521C344B1B689A4271
:1022D00004D25C4500D101200128DFD1EFF310804A
:1022E00072B62C490968491E2A4A116080F3108889
:1022F00002F0E4FB5C4501D10E2632E0002D01D155
:1023000003262EE00698002801D1032629E0B8F123
:10231000800F01D2052624E0B9F1200F01D30F264A
:102320001FE01398814501D218261AE0159802285B
:1023300001D3102615E01A4800681A49884200D1D6
:10234000132619480068EFF305810843002808D0D8
:1023500015480168EFF305800143B1F1F03F00D269
:102360001326002E11D15346390015980590149864
:10237000049013980390CDF80890CDF80480009550
:10238000069A200002F0F8FB0600300007B0BDE816
:10239000F08F00BF60D8FF1FD0D7FF1FD4D7FF1F1B
:1023A000C8D7FF1F0CD9FF1FD882FF1F80B54FF47D
:1023B0007A7148434FF47A71B0FBF1F0401C02F09F
:1023C000A1FC02BD80B5FFF7F1FF02BD38B50500E5
:1023D0000A4C0B4800686860022002F069FD201A70
:1023E0000849A1FB00012200002302F081FD2860C2
:1023F0006868034909688842EBD131BD00879303BF
:10240000E4D3FF1F40420F001CB504006846FFF7ED
:10241000DDFF01996068081A16BD2D00EFF31081E9
:1024200072B60248006881F31088704770D8FF1FA9
:10243000A0F161011A2901D20120704741381A2800
:102440008041C00F7047A0F161011A2938BF2038C0
:102450007047E20080B53423012259A1DFF8600201
:1024600002F05EFE002801D0012000E0002002BD45
:102470002DE9F04180460D0016001F000121904813
:1024800002F0B8FE002849D18E4804688E484FF407
:10249000AA7101FB04F10844FFF798FFFF224146AF
:1024A00089484FF4AA7303FB04F318440830FFF77C
:1024B00029FE3F22290084484FF4AA7303FB04F34A
:1024C000184400F20910FFF71DFE7F484FF4AA716F
:1024D00001FB04F10844C0F84C617B484FF4AA7139
:1024E00001FB04F10844C0F85071641C202C00DB8F
:1024F0000024744804607348406884420AD1401C38
:10250000202800DB00206F4948606E48C068401CEE
:102510006C49C8606A4802F0ABFE04E06948806814
:10252000401C68498860BDE8F0812DE9F041050054
:102530000E00170098464FF48070FFF745FE040028
:10254000002C0ED006AB4246FF21200002F0B8FE60
:102550003B00320029002000FFF78AFF2000FFF730
:1025600038FEBDE8F08138B5040000250A21544842
:1025700002F040FE5348006852494968884218D02A
:10258000504841684FF4AA724F4B4FF4AA70414330
:1025900019442000FFF700FC4A484068401C4949A4
:1025A000486048484068202802D3002045494860D8
:1025B0000125434802F05CFE280032BD0000000007
:1025C0004C4F47007FB5FEF7A3FFD0F8B000FEF7F1
:1025D0009FFFD0F8B4403D48616988473948826818
:1025E0003848C1683A48636998473A4861698847FA
:1025F00034484568FFE7C82102A8226990470028AF
:1026000024D19DF808001B2803D0522801D072283D
:102610001CD17FBD2C484FF4AA7101FB05F1084481
:1026200010F1080328484FF4AA7101FB05F1425844
:1026300025484FF4AA7101FB05F10844416826487A
:102640006669B0476D1C202D00D300251D48006829
:102650008542D0D01C484FF4AA7101FB05F1084413
:10266000D0F84C010028D5D017484FF4AA7101FBCF
:1026700005F10844D0F84C01019013484FF4AA71B9
:1026800001FB05F1084400F2091000900E484FF4D8
:10269000AA7101FB05F1084410F108030A484FF440
:1026A000AA7101FB05F1425807484FF4AA7101FBDA
:1026B00005F10844416809486669B047C2E700006F
:1026C000B0D3FF1FA0D3FF1F20A9FF1F8C5601000E
:1026D000EC4301003C460100A0560100E05001001F
:1026E00038B50400FFF79AFE050044F2F720444392
:1026F000641E200002F004FEFFF790FE451B0F4809
:10270000A0FB05014FF47A72002302F0F1FB34BD07
:10271000EFF3108172B690ED000A81F310887047D4
:10272000EFF3108172B680ED000A81F310887047D4
:1027300072B603480349086000BFFDE740420F003E
:102740000400FA050CED00E02DE9F14FAEB0924621
:1027500004910021389A8DF8432099460D910BE0A1
:102760001AF8011B04982E9A90470028049000F054
:102770005F860D98401C0D909AF8000058B12528EE
:10278000EED1002100220791089209910A920B9143
:102790000C92002004E00D9800F04CBE40F00100C7
:1027A0001AF8011F2029F9D023290CD02B2904D095
:1027B0002D2905D0302909D00BE040F00200EFE7C9
:1027C00040F00400ECE740F00800E9E740F01000BA
:1027D000E6E72A290FD1D9F8002052F8041BC9F8DE
:1027E000002000290F9103D549420F9140F00400C9
:1027F0000AF1010A14E00F92DFF8403C0AE00F9959
:10280000994205DA01EB810402EB4402303A0F925F
:102810000AF1010A9AF80020A2F130010A29EED348
:102820009AF800102E2903D04FF0FF320E922AE0C2
:102830001AF8011F2A2909D1D9F8001051F8042BE0
:10284000C9F800100E920AF1010A1CE02D290CBFF4
:102850000AF1010A002100220E92DFF8E04B0CE0A1
:102860000A0008D10E9AA24205DA02EB820503EBB8
:102870004503303B0E930AF1010A9AF80030A3F1A8
:1028800030020A2AECD3ADF840000FF6B4309AF8C3
:10289000001002F041FD08B11AF8010B8DF842005A
:1028A0009DF84200682805D19AF8000068280CD1EC
:1028B000622106E06C2804BF9AF800006C2804D15D
:1028C00071218DF842100AF1010A12A806901AF837
:1028D00001BBBBF125012CD01C3900F0D781091FA9
:1028E000022940F2D381133900F0D484093900F071
:1028F000CD81891E00F06985491E00F01685491EAC
:10290000022940F2C381091F00F00F85491F00F022
:102910003281491E00F0BE84491E00F0D880C91ED5
:102920000DD0891E00F0B684C91E00F0B38400F0FB
:1029300057BD25238DF84830012100F05CBDD9F842
:10294000000050F8044BC9F80000002C059440F03A
:10295000AB809DF84300002800F0A1804FF0FF34C9
:102960000FF6E42002F0E4FC201A40F0618500F04C
:1029700043BD01236A4602A9304600F035FE002817
:1029800040F056856D1EF4D12E96079D12AF75B19D
:102990002E9E17F8012B02A9304600F015FE0028E4
:1029A00001D46D1EF5D100282E9640F041850A9D78
:1029B0003020002D8DF800000CDD2E9E01236A468C
:1029C00002A9304600F010FE002840F031856D1E4F
:1029D000F4D12E96059F089D75B12E9E17F8012BF8
:1029E00002A9304600F0F0FD002801D46D1EF5D19B
:1029F00000282E9640F01C850B9D3020002D8DF870
:102A000000000CDD2E9E01236A4602A9304600F02C
:102A1000EBFD002840F00C856D1EF4D12E96059834
:102A20000899099D471875B12E9E17F8012B02A928
:102A3000304600F0C9FD002801D46D1EF5D10028F4
:102A40002E9640F0F5840C9D3020002D8DF800006E
:102A50000CDD2E9E01236A4602A9304600F0C4FD1B
:102A6000002840F0E5846D1EF4D12E969DF84000BC
:102A700041077FF581AE2020002C8DF800007FF704
:102A80007BAE2E9D01236A4602A9284600F0ACFDCC
:102A9000002840F0CD84641EF4D12E956CE60FF62C
:102AA000A830059000F0A8BC0E9D002D04D520464E
:102AB000FFF748F9044607E02A46204602F058FC92
:102AC000002814BF041B2C46089400F095BCD9F8CC
:102AD000001051F8040BC9F8001020F00004002188
:102AE00021F0FF3512ABCDE902450593DDE9022364
:102AF00006993C2413B90AB90E98A8B102F00F0543
:102B00003035641EEEB23A2E08DA120942EA037238
:102B10001B090D5508BF002A02D105E02735F4E74F
:102B200005980D19A842E9D308190590C4F13C0293
:102B30000E98089282420ADABDF84010821A4FF6C7
:102B4000EF7001400A92ADF8401000F055BC00282B
:102B500040F152849DF8400000F01400102840F02D
:102B60004B840F9B07990A985B1A1B1A9A1A002A22
:102B700040F342848CE39DF8430020B14FF0FF34D2
:102B80000FF69420EEE69DF84200622860D0682897
:102B900017D06A283FD06C2806D0712847D07428F7
:102BA0002CD07A281DD062E0D9F8001051F8040B1F
:102BB000C9F80010002866D14FF0FF340FF67020DE
:102BC000D0E6D9F8001051F8040BC9F8001020B96C
:102BD0004FF0FF340FF65820C4E60D99018000F045
:102BE0000BBCD9F8001051F8040BC9F800100028EC
:102BF00049D14FF0FF340FF63820B3E6D9F8001072
:102C000051F8040BC9F8001000283CD14FF0FF34F4
:102C10000FF61C20A6E6D9F8001051F8040BC9F8ED
:102C2000001080B94FF0FF340FF604209AE6D9F86F
:102C3000001051F8040BC9F8001020B94FF0FF3410
:102C40000FF6EC108EE60D9AD317C0E90023D3E3FC
:102C5000D9F8001051F8040BC9F8001020B94FF052
:102C6000FF340FF6CC107DE60D990170C4E3D9F85E
:102C7000001051F8040BC9F8001020B94FF0FF34D0
:102C80000FF6AC106EE60D990160B5E3D9F800209F
:102C9000D21D22F00702C9F80020D2E90001083253
:102CA000C9F80020CDE90201C80F02D007982D21F4
:102CB0000AE0BDF84000810702D507982B2103E008
:102CC000C00705D50798202112AA1154401C07906F
:102CD00012A80799DDE9024543184BF0200061284E
:102CE000059321AE0BD00E98002802D506200E9039
:102CF00005E001BF4BF02000672801210E91DDE9BE
:102D0000020148004015401C0A460DD109030BD0B2
:102D1000ABF1610703201A2F089002D20FF62C1195
:102D20000DE00FF62C110AE070B912030CD1ABF1D3
:102D3000610703201A2F08901CD30FF61C110322E1
:102D40001846FFF729F857E3DDE902016A4602F069
:102D50003BFBCDE902014BF02000612811D1059821
:102D600030210170821CBBF1610F05920CBF7821EC
:102D7000582102E00FF6DC01E1E741700798801C62
:102D80000790DDE9020120F0000231F0004308BFA6
:102D9000002A02D10025002445E14BF02008B8F1BB
:102DA000610F40F095800E98002847BF21210191C6
:102DB000401C0190019F7F1C2046294600220023D1
:102DC000DDE9024502F038FB00998DF8842038BF18
:102DD00085F00045091F002F00910DF1850034DDBD
:102DE0000646204629460022002302F03FFB2BD254
:102DF0001C2202F055FB04460D4602F0EFFBFF1FBC
:102E0000002F804609DD02F005FC02460B462046F5
:102E1000294602F0CFFC04460D46F01D0721B8F10B
:102E2000000F0CDD491E5EBF08F00F0200F8012DF7
:102E30004FEA2818F3D502E0002200F8012D491EC0
:102E4000FAD5C61D002FCCDC30460DF18501401AA5
:102E5000019905468842C8BF0D46002D0DF1850633
:102E60002FD4854206DA0DF18500415D0829A8BFFF
:102E70000F2000DA0020294621AA0A4400E06D1E36
:102E800012F80139491E8342F9D00F2804D10DF1FF
:102E90008500425C521C4254002904D50098001D54
:102EA00021AE6D1C0090681E0BD431180A783032A8
:102EB000D3B23A2BA4BF5A443A3A401E01F8012932
:102EC000F4D50E98002840F1AD80691E0E91A9E05E
:102ED0000099DFF8E42647F29750414391FBF2F264
:102EE000009225F00045C2F10702002A04DD2046C9
:102EF000294600F03DFB0BE052420020DFF8BC16F3
:102F000000F036FB02460B462046294602F0C4FC80
:102F10000446B8F1660F0E9806BF009F0A370627D1
:102F20003F18142FC8BF142730208DF884000D4699
:102F30000DF1850000E03046002F35DD06462046C5
:102F4000294602F0CDFD01460A4606F10803042099
:102F50000A26B2FBF6F606EB860EA2EB4E023032E4
:102F600003F8012C0A22B6FBF2F202EB820EA6EB6A
:102F70004E063036401E03F8026DE9D1083F002F9F
:102F800003F10806D7DD084602F0BCFD02460B46F9
:102F90002046294602F00EFC0022DFF8243602F01B
:102FA000BFFD04460D46CAE70DF18501401A0DF13B
:102FB000850604E00099491E401E0091761C317878
:102FC0003029F7D0B8F1660F02D10099491C04E00E
:102FD000B8F1650F0CBF012100210E9D4D19A842CB
:102FE000B8BF451E002D1DD4854204DA705D34281B
:102FF000C8BF392000DC30202946721E531800E07B
:103000006D1E13F80149491E8442F9D0392802D1B6
:10301000705C401C7054002904D50098401C164672
:103020006D1C0090009C28B20E9F002802DC012538
:103030000FF228664BF02000662808BF641C15D0EC
:1030400067280FFA84F841D118F1040F44DBB84522
:1030500042DA9DF84000641C010703D428B2B8424C
:10306000D8BF074620B23F1A48BF00270FFA84F89E
:10307000B8F1000F00F3AF800898411C089130228E
:1030800005990A54002F03DC9DF84000010705D57F
:103090000898411C08912E2205990A5417EB080F35
:1030A000B8BF7C4220B2C4192AB2414294420B916B
:1030B000B8BF2546059B08982DB209952A4631468A
:1030C0001844FEF769FE641B0C94CCE0BBF1610F61
:1030D00015D14FF0700B17E028B2B84204DA9DF812
:1030E00040100A0758BF07467F1E48BF0027BBF1A4
:1030F000670F14BF4FF0450B4FF0650B04E0BBF1B9
:10310000410F08BF4FF0500B0898411C0891002F49
:10311000059916F8012B0A5403DC9DF840000107BD
:1031200019D50898411C08912E2205990A54002FA0
:1031300011DD6D1E28B287420598089BB8BF3D4639
:103140002AB231461844FEF727FE08982DB22818F7
:103150007F1B08900B97059808990844B8F1000F59
:1031600080F800B003D42B224270821C04E02D2191
:1031700044464170821C644200212BAB20460AE089
:1031800004460A2094FBF0F000EB8005A4EB450414
:1031900003F8014B491C00B20028F1DC012906DCD0
:1031A0004BF02000652804BF302002F8010B0029F5
:1031B0002BAB08D1302002F8010B06E0491E585C09
:1031C000303002F8010B0029F8DC05990898084412
:1031D000121A099247E028B221B288421BDA0598F8
:1031E000089B2AB231461844FEF7D6FD08992DB245
:1031F00069180891A8EB0500002F0B9003DC9DF8DF
:103200004000020705D5059A2E2050540999491C03
:1032100009910C9727E00598089B22B23146184483
:10322000FEF7BAFD08982D1B4044002F089003DCE0
:103230009DF840100A0704D5411C08912E220599DB
:103240000A5428B287420598089BB8BF3D462AB267
:1032500006EB08011844FEF79FFD08982DB22818C8
:103260007D1B08900B959DF8400000F0140010287D
:1032700040F0C280079A08990B988A180999821819
:103280000C988A1882180F98824280F2B580821AB0
:103290000A92B1E09DF84200622808D068280ED05A
:1032A0006A2814D06C281FD0712810D01CE0D9F8DF
:1032B000001051F8040BC9F80010C0B21AE0D9F898
:1032C000001051F8040BC9F8001080B212E0D9F8D0
:1032D0000020D21D22F00702C9F80020D2E9000127
:1032E0000832C9F8002006E0D9F8001051F8040BA4
:1032F000C9F800100021CDE902019DF84000010746
:103300005AD5DDE90223002B08BF002A54D04BF028
:103310002000782850D1079812A930220A54401C66
:10332000431C079301F800B046E09DF84200622874
:1033300008D068280ED06A2814D06C281FD07128B5
:1033400010D01CE0D9F8001051F8040BC9F8001097
:1033500040B21AE0D9F8001051F8040BC9F8001077
:1033600000B212E0D9F80020D21D22F00702C9F8FD
:103370000020D2E900010832C9F8002006E0D9F89F
:10338000001051F8040BC9F80010C117CDE9020173
:10339000002902D507982D210AE0BDF840008107D9
:1033A00002D507982B2103E0C00705D507982021F7
:1033B00012AA1154401C079012A8079901440591C4
:1033C00002A8594600F04EF816E001200790D9F8FF
:1033D000000050F8041BC9F800008DF848100BE0FD
:1033E00025210122BBF1000F8DF84810079203D070
:1033F0008DF849B0022107910F9A07980A990C9C01
:10340000121A0898521A0B99121A0998521A121A7B
:103410009DF84000141B41073FF5B7AA2020002C5F
:103420008DF800007FF7B1AA2E9E2546FFF7A1BABE
:103430004FF0FF302FB0BDE8F08F0000CBCCCC0CAC
:10344000686A6C747A4C00007072696E74665F739F
:103450003A2062616420257320617267756D656E24
:10346000740000002DE9FC4304466F29256908BF5C
:10347000082605D041F02000782814BF0A2610261F
:103480003C27D4E90023642918BF6929904699464E
:1034900005D1002B03D5D8F1000869EB4909B9F132
:1034A000000F08BFB8F1000F0CD1206B50B9082EE7
:1034B0003AD194F83800010736D530203B2785F8FB
:1034C0003B0031E08DF80010404649463246F31784
:1034D00001F00EFD3032D0B27F1E3A2801970EDA8D
:1034E000EA55404649463246F31701F001FD804651
:1034F0005FEA010908BFB8F1000F05D108E09DF8A7
:1035000000001218513AEBE7E068E9198842DBD372
:10351000082E09D194F83800010705D5E85D302858
:1035200002D07F1E3020E855C7F13C02A261E919A4
:10353000E160206B824208DA821A22624FF6EF7055
:10354000218F01402187BDE8F38300280ED594F830
:10355000380000F01400102808D1636B6169206AFC
:103560005B1A1B1A9A1A002AC8BF2262BDE8F383AD
:103570002DE9D04306460F4614464FF00008DFF809
:10358000449012E0E00707D542464B4630463946A4
:1035900002F0C6FA06460F464046494642464B46AA
:1035A00002F0BEFA641080468946002CEAD130460B
:1035B0003946BDE8D0830000A08601000000F03F3E
:1035C00084D797410000244010B503460C461146AD
:1035D000A0689847A06020B1E06A401CE06200202B
:1035E00010BD4FF0FF3010BDF8B505460E4617462A
:1035F0001C4600205CB117F8011BB068A847B060FA
:1036000030B1F06A401CF0620020641EF3D1F2BDBC
:103610004FF0FF30F2BD00007072696E74665F7328
:103620003A20256E20646973616C6C6F7765640065
:103630007072696E74663A2062616420256E206142
:103640007267756D656E7400000000006E616E003B
:103650004E414E00696E6600494E46003000F20051
:10366000034608460122C168491CC1600021006868
:10367000184703460846C1680269491C521E002AC1
:103680000261C16003D400680122002118474FF095
:10369000FF307047034608461146C268521E11F1BA
:1036A000010FC26002D00068002218477047000076
:1036B0002DE9F04F99B04FF0FF35009100241B68C1
:1036C000019302920DF13F02229B8DF81F30A84614
:1036D00003941892824614E00398401C0390012240
:1036E00000980021D047A0F109010529F4D3202832
:1036F000F2D0024669465046FFF7CCFF0298411CC3
:103700000291029C2078A0F10902052AE4D3202826
:10371000E2D090B1252815D1601C029001782A29A9
:1037200011BF0021401C029010F8011D8DF81C10E3
:1037300000210591DFF80C0A20E0404500DA404600
:1037400000F002BD0398401C039001220098002164
:10375000D04721788842D1D0024669465046FFF7CB
:1037600099FF0020E9E70599814205DA01EB810420
:1037700002EB4402303A0592591C0291029B1A78DE
:10378000A2F130010A29EED306950FF6C43019785C
:1037900001F0C2FD20B10298401C0290401E00784A
:1037A0008DF81D009DF81D00682805D10299087844
:1037B00068280CD1622206E06C2802BF02990878C2
:1037C0006C2804D17122491C8DF81D2002910298A9
:1037D00001780FF6843001F09FFD88B90398401CF2
:1037E0000390012200980021D047A0F1090105298A
:1037F000F4D32028F2D0024669465046FFF74AFF2C
:1038000000208DF81E0002980178253939D01C3926
:1038100000F09A80091F022940F29680133900F0C7
:10382000FA82C91E1FD0891F00F08E80891E00F009
:103830007484491E00F0EF82491E022940F2848000
:10384000091F00F0E882491F3ED0491E012940F2BD
:10385000E282091F35D0891E00F0DD82C91E00F00A
:10386000DA8200F064BC2A4600F058BC2299002994
:1038700000F05E8410F1230F40F05A84284600F0D7
:1038800063BC0398401C039001220098D047044673
:10389000252C0CD1B8F1000F9DF81E0048BF4FF049
:1038A000000800283FF42AAF08F1010826E7224665
:1038B00069465046FFF7EEFE14F1010F40F03784E1
:1038C00048E3012200F02ABC9DF81C000028E1D149
:1038D0009DF81D0062282CD0682811D06A281BD0C2
:1038E0006C2801D0712817D0019951F8040B01916F
:1038F00018B90FF66C2000F00CBC03990160C9E701
:10390000019951F8040B019118B90FF6542000F0F9
:1039100000BC03990180BDE7019951F8040B0191A6
:1039200010B90FF63C20F4E3039AD317C0E9002343
:10393000B0E7019951F8040B019110B90FF620205E
:10394000E7E303990170A5E705980028D8BF6FF059
:103950000040049069465046FFF78BFE00242B2858
:1039600018BF2D280DF1240907D18DF824006946D0
:103970005046FFF77EFE0DF125090A260027302864
:1039800018D169465046FFF774FE40F02001C9B2D5
:10399000782902D001273946E0E0302089F800007C
:1039A00089F8011050466946FFF763FE09F10209E4
:1039B0001026F0E740F02001CAB26E2A48D16E20EE
:1039C00009F8010B69465046FFF753FE064646F0DC
:1039D0002000C0B26128A34640F07381612109F83C
:1039E000011B50466946FFF744FE064646F020009C
:1039F000C0B26E2840F0658169465046FFF739FE37
:103A0000282806D0024669465046FFF743FE6E203E
:103A10004EE00498401E049004D50398401C039087
:103A2000284603E069465046FFF71AFEA0F16101FF
:103A300006461A2921BFA0F141021A2A30380A2865
:103A4000E7D35F2EE5D0292E40F03B816E202FE09A
:103A5000C9B2692940F09280692009F8010B6946D2
:103A60005046FFF706FE064646F02000C0B26E281C
:103A7000A34640F026816E2109F8011B5046694695
:103A8000FFF7F7FD064646F02000C0B2662840F07A
:103A9000188169465046FFF7ECFD40F02001C9B29D
:103AA000692908D0024669465046FFF7F3FD6620B3
:103AB00009F8010B0BE169465046FFF7DAFD0646AF
:103AC00040F02000C0B26E2840F0FB8003980499BB
:103AD000401C491E00290491039005D4009801223E
:103AE0000021D047064600E02E4646F02000C0B236
:103AF000692840F0E68003980499401C491E00297B
:103B00000491039005D4009801220021D047064675
:103B100000E02E4646F02000C0B2742840F0D1806C
:103B200003980499401C491E00290491039005D470
:103B3000009801220021D047064600E02E4646F0BC
:103B40002000C0B2792840F0BC80662109F8011B32
:103B5000BDE069465046FFF783FD0121302808D1BA
:103B60000498401E0490F4D50398401C0390284606
:103B7000F3E70F4611B1302109F8011B3A4600273F
:103B800013E00398401C039028460DE0242FAEBF9D
:103B9000641C09F8010B7F1C0498401E0490F0D4AB
:103BA00069465046FFF75CFD012210F1010F2AD053
:103BB000C3B2612BA8BFA0F157010ADA412BA8BFFD
:103BC000A0F1370105DA303B0A2B34BFA0F13001F8
:103BD000FF21C9B2B142D9D38DF820602E281646F4
:103BE000BB4614D109F8010B03990498491C401EE7
:103BF00000280490039104D4009801220021D047AA
:103C000005E0284603E08DF82060BB461646BBF170
:103C1000000F17D104E069465046FFF721FD012649
:103C2000302809D10498641E401E0490F3D50398EF
:103C3000401C03902846F2E7002C03D5302109F8F8
:103C4000011B641C9DF82070314604E06946504613
:103C5000FFF706FD012110F1010F24D0C3B2612B43
:103C6000A8BFA0F157020ADA412BA8BFA0F1370282
:103C700005DA303B0A2B34BFA0F13002FF22D2B26A
:103C8000BA4210D2BBF1240F08DB0498401E049006
:103C9000DCD50398401C03902846DBE709F8010BAC
:103CA0000BF1010BF1E7BB460F00064609D046F0C9
:103CB0002000BBF10A0FC0B234D1652834D000E037
:103CC0000646324669465046FFF7E4FC17B300212A
:103CD00089F800109DF81C0000287FF4DBADBBF1D3
:103CE0000A0F0B4673DC224609A800F0F7FC0122FC
:103CF0008DF81E20019A9DF81D40131D6C2C71D16A
:103D000012680193002A6AD1DFF83404784400F580
:103D10008660FEE109A8814508BF16F1010F40F059
:103D2000068217E17028CCD109F8016B0498401E77
:103D3000049010D40398401C0390012200980021A5
:103D4000D0472B2818BF2D2811D109F8010B049852
:103D5000401E049004D50398401C0390284606E0BA
:103D60000398401C0390012200980021D0470027AF
:103D700004E069465046FFF773FC0127302808D15C
:103D80000498401E0490F4D50398401C03902846E4
:103D9000F3E717B1302109F8011B002604E069465A
:103DA0005046FFF75DFC0127A0F130010A2987D2B8
:103DB000082E08DB0498401E0490F0D50398401CA0
:103DC00003902846EFE709F8010B761CF2E7002282
:103DD00009A800F083FCA20001F062FB87E7C2E9BA
:103DE000000157E54C2C09D112680193002AF6D145
:103DF000DFF84C03784400F552708AE114680193AF
:103E00002CB9DFF83C03784400F2363081E1FEF74C
:103E100045F920603EE505980028CCBF401EDFF83C
:103E20002C0500280DF12009049012D40398401CA1
:103E30000390012200980021D0472B2818BF2D287D
:103E400013D18DF820000DF121090498401E049033
:103E500004D50398401C0390284606E00398401CB4
:103E60000390012200980021D047029A1278002185
:103E7000642A18BF752A0FD0692A08BF00240CD005
:103E80006F2A08BF082408D0702A1CBF42F0200205
:103E9000782A02D1102400E00A2430285FD1049847
:103EA0000126401E0490039805D4401C0390012273
:103EB0000098D04702E0401C0390284640F02001C3
:103EC000C9B2782948D1002C18BF102C4FD10498C2
:103ED0001024401E0490039807D4401C0390012234
:103EE00000980021D047002641E0401C03902E4658
:103EF000002701E006460F46324669465046FFF766
:103F0000C9FB07B3002189F800109DF81C000028A8
:103F10007FF4C0AC02980078642818BF692800F0CC
:103F2000B380224608A801F0A1FF01228DF81E20CF
:103F3000029A1378702B5AD1019B53F8042B0193EA
:103F4000002A52D1E4E008A8814508BF16F1010F0C
:103F500040F0ED802846EBE04CB9082407E0ECB9CE
:103F60000A241BE069465046FFF77AFB01263028F9
:103F700008D10498401E0490F4D50398401C039087
:103F80002846F3E731460A0008D0302209F8012B11
:103F900004E069465046FFF763FB012110F1010F71
:103FA000A8D0C2B2612AA8BFA0F157030ADA412AF9
:103FB000A8BFA0F1370305DA303A0A2A34BFA0F1CE
:103FC0003003FF23DBB2E2B2934293D218998945C2
:103FD00008D30498401E0490DBD50398401C03903E
:103FE0002846DAE709F8010BF3E7106052E49DF880
:103FF0001D20622A39D0682A11D06A2A25D06C2A5D
:1040000006D0712A29D0742A18D07A2A0FD034E029
:10401000019B53F8042B0193002AE6D178E0019B21
:1040200053F8042B0193002A72D0108032E4019BD4
:1040300053F8042B0193002AD7D169E0019B53F870
:10404000042B0193002AD0D162E0019B53F8042B8A
:104050000193002A7FF4C3AE5AE0019B53F8042B6E
:104060000193002A7FF4BBAE52E0019B53F8042B6E
:104070000193002A4CD010700CE4019B53F8042BE0
:104080000193002AB1D143E0224608A801F044FF81
:1040900001228DF81E209DF81D20622AE5D0682A95
:1040A000BDD06A2A1DD06C2A06D0712A21D0742A6C
:1040B00010D07A2A07D024E0019B53F8042B0193F7
:1040C000002A92D124E0019B53F8042B0193002A8B
:1040D0008BD11DE0019B53F8042B0193002A84D15E
:1040E00016E0019B53F8042B0193002A7FF477AE6E
:1040F0000EE0019B53F8042B0193002A7FF46FAE6E
:1041000006E0019B53F8042B0193002A7FF46DAF66
:10411000A2A001F00DF9281A04E0002269465046D9
:1041200000F03CF800283FF7B5ABFFF79FBB00203D
:10413000B8F1000F7FF503AB8046FFF700BB00BF6F
:1041400044060100CBCCCC0C19B0BDE8F08F30B4E4
:1041500009E00478CBB2A34222BF8378CDB2AB4250
:1041600015D2C01CD21E032A0BD343782D2BF0D0BE
:1041700010F8014BCDB2AC4218BF521EF3D106E08D
:10418000521E3AB110F8013BCCB2A342F8D130BC78
:104190000120704730BC0020704700002DE9F04F2F
:1041A00092460027BAF1000F83B080460E464FF0CA
:1041B000000B25D5B068411CB160084601785E2926
:1041C00003BF401CB06010F8019DB946B56828785F
:1041D0005D280CBF681C28465D2101F09DF8002871
:1041E00000F0AC80411B0191B0600198032807DB0F
:1041F000821E2D21681C01F0BBF808B14FF0010BA5
:104200007069002805DCBAF1000F14BF6FF00040A0
:1042100001203061307F002801BF706850F8044BE6
:104220007060002C08D14FF0FF3402487844001D24
:1042300011E000BF54070100307FA8B9F07F98B1AA
:10424000716851F8040B7160B0F1004FC0F0078045
:104250004FF0FF3449A001F06BF8201A73E0B16908
:10426000884288BF0846B0618DF80090CDF808B04C
:10427000DDF8049000E00227F0683169401C491E17
:1042800000293161F06002D54FF0FF3B3EE030681D
:1042900001220021C04783461BF1010F36D0BAF13D
:1042A000000F0DDC24D5029800289DF800000FD0E7
:1042B00000284A465946284617D0FFF748FF0EE027
:1042C000ABF10900052821D3BBF1200F10D11DE06F
:1042D00000284A465946284603D001F049F838B12B
:1042E00014E001F045F888B102E0FFF730FF68B153
:1042F000307F0028BFD1B06938B104F801BB01217B
:10430000B069B177401EB061B5E7012740465A4613
:104310003146FFF7BFF9BAF1000F01D0022F09D0E3
:10432000022F0FD0F80702D41BF1010F06D14FF076
:10433000FF3008E0307F28B9B06908B9002002E0FA
:1043400000202070012003B0BDE8F08FFEFFFF7F4A
:10435000686A6C747A4C000063436E5B0000000076
:104360007363616E665F733A2062616420256E201C
:10437000617267756D656E74000000007363616E35
:10438000665F733A206261642025632C2025732CBC
:10439000206F7220255B2073697A65007363616EFC
:1043A000665F733A2062616420696E746567657246
:1043B00020617267756D656E740000002DE9F84F1D
:1043C00084B00BB100241C600446A04601E008F153
:1043D000010898F80000A0F10903052BF7D3202865
:1043E000F5D02D2816BF2B2818F8015B2B25002AA5
:1043F000019103D4012A01D0252A03DB002959D0D9
:104400000C6057E0002A0CDD102A04BF98F8000069
:10441000302802BF98F8010040F02000782811D120
:104420000CE098F80000302818BF0A220AD198F84A
:10443000010040F02000782803D1102208F1020882
:1044400000E00822CDF80C8001E008F1010898F89E
:1044500000003028F9D0074E7E4418364FF000098E
:1044600006F12800CDF80880CA468DF800001746EE
:104470000CE000BF04FD00009DF80010401ACA4681
:104480005FFA80FB07FB09B908F1010898F80010F2
:10449000A1F141001A2838BF20313A4606F1280020
:1044A00000F066FF0028E7D10399414504D1019847
:1044B00000B10460002020E00299F05DA8EB01014A
:1044C000081A002810D406DCB9EB0B0103D3B1FBAA
:1044D000F7F0504508D0AFF30080049808B10121EF
:1044E00001604FF0FF3903E02D2D08BFC9F100092D
:1044F000019808B1C0F80080484605B0BDE8F08FCB
:10450000F8B52DED048B140082B041EC180B1D465C
:1045100000F0D88020F0000231F0004308BF002AEC
:1045200000F0D08048004015401C02D1090300F083
:10453000C980002C9FED679B55D56442644F7F4432
:1045400007F5C77708260CE0E00707D5D7E9002371
:1045500051EC190B01F0E4FA41EC190B640808372F
:10456000761E002C18BF002EEED16A4651EC180BB7
:1045700000F02AFF009E53EC192B01F08DF9324612
:1045800000F08EFF20F0000231F0004308BF002A47
:1045900041EC180B00F0808048004015401C01D110
:1045A000090379D0002C77D06A4651EC180B00F043
:1045B0000BFF009E994A9A4B01F0B2FA324600F086
:1045C0006FFF20F0000231F0004308BF002A41ECE9
:1045D000180B61D048004015401C01D109035BD085
:1045E000641EE1D158E057DD394F7F4407F1E207FF
:1045F0000826E00707D5D7E9002351EC190B01F095
:104600008FFA41EC190B64100837761E002C01DD7F
:10461000002EEED16A4651EC180B00F0D5FE26466E
:1046200041EC100B009C53EC102B51EC190B01F0DA
:1046300077FA224600F034FF20F0000231F0004308
:1046400008BF002A41EC180B26D048004015401C3A
:1046500001D1090320D0002E1EDD6A4651EC180B53
:1046600000F0B2FE009C6F4A774B01F059FA2246E7
:1046700000F016FF20F0000231F0004308BF002ACE
:1046800041EC180B08D048004015401C01D109032B
:1046900002D0761E002EE0DC51EC180B20F0000258
:1046A00031F0004308BF002A05D048004015401CE7
:1046B00008D1090306D1AFF300801DB1286840F08E
:1046C0000100286002B051EC180BBDEC048BF4BD66
:1046D000E0FB0000000000000000F03F2DE9F14D7C
:1046E00081B05FEA03082DED028B84B01CBF00206F
:1046F000C8F80000079D0C46934607A801F00FFC80
:10470000C11020F00800012801F0010A32D1022076
:10471000009001AB07992246284601F091FC040065
:1047200008BF9FED4A0B1ED0029800F073FF022CC9
:1047300041EC100B17DB03AF661E9FED3B8B51EC7A
:10474000100B53EC182B01F0EBF9044657F8040B4F
:104750000D4600F05FFF22462B4600F06DFF761EEF
:1047600041EC100BEBD1019800EB0B02434651ECEE
:10477000100B33E0022836D1009001AB0799224696
:10478000284601F031FD040008BF9FED300B1ED01C
:10479000029800F03FFF022C41EC100B17DB03AF37
:1047A000661E9FED238B51EC100B53EC182B01F080
:1047B000B7F9044657F8040B0D4600F02BFF2246CC
:1047C0002B4600F039FF761E41EC100BEBD1019A1D
:1047D00051EC100B00F064FE43465A46FFF790FE82
:1047E00041EC100B0AE0032808BF9FED130B05D026
:1047F00004280CBF9FED120B9FED140BBAF1000FB4
:1048000005D051EC100B81F0004141EC100B04B0CD
:1048100051EC100BBDEC028BBDE8FC8D436FAC641A
:104820002806C80A3CBF737F0000000065CDCD415B
:10483000000000000000B041000000000000F07F18
:10484000FFFFFFFFFFFFFF7FDD4F1575000000003A
:10485000000000000023002240E7FA0062F30F226C
:1048600062F31F42401810F0030308D0C91A1FD387
:10487000DB0748BF00F8012D28BF20F8022D1300E8
:1048800030B414461546103928BF20E93C00FAD848
:10489000490728BF20E90C0048BF40F8042D8900D3
:1048A00028BF20F8022D48BF00F8012D30BC70470A
:1048B000C91818BF00F8012DCB0728BF00F8012D3B
:1048C0007047E0002DE9F84304000F0015009846FA
:1048D0000026002C01D102264BE00898342801D094
:1048E000022646E0EFF3108072B628490968491C99
:1048F000264A116080F310882548D0F800900020E7
:1049000002E0D9F82C90401C22490968884201D263
:104910004C45F6D1EFF3108072B61C490968491E68
:104920001A4A116080F3108800F0C8F84C4501D194
:1049300002261EE0002D01D103261AE0B8F1640F13
:1049400001D2052615E0144800681449884200D1B8
:10495000132613480068EFF305810843002808D0A8
:104960000F480168EFF305800143B1F1F03F00D239
:104970001326002E06D143462A003900200001F0FC
:1049800039FD06003000BDE8F28300BF60D8FF1F8C
:10499000B8D7FF1FBCD7FF1FC8D7FF1F0CD9FF1FF9
:1049A000D882FF1F70B504000020002C01D1022026
:1049B0001CE025681D4EB54201D0022016E00029FA
:1049C00001D1032012E0002A01D105200EE0E569A3
:1049D000954201D2052009E0002B07D0144D2D6827
:1049E000EFF305863543002D00D00420002805D1C3
:1049F000104D2D68104EB54200D1132000280FD164
:104A00000B4D2D68EFF305863543002D08D0084D7A
:104A10002E68EFF305852E43B6F1F03F00D2132048
:104A2000002802D1200001F035FD70BD45545942E7
:104A3000D882FF1FC8D7FF1F0CD9FF1F80B50021E8
:104A4000002801D1032115E00E4A12680E4B9A424C
:104A500000D113210D4A1268EFF305831A43002A8F
:104A600008D00A4A1368EFF305821343B3F1F03F0D
:104A700000D21321002902D101F088FD01000800B5
:104A800002BD00BFC8D7FF1F0CD9FF1FD882FF1F70
:104A90003EB5002801D102200DE00468064DAC426D
:104AA00001D0022007E0089C0294079C0194069C18
:104AB000009401F007FE3EBD4554594210B5294807
:104AC000006800284CD12848006828490C68A0429A
:104AD00046D0EFF3108072B6002C32D02168244A01
:104AE00091422ED1A168D4F8A820914202D2A168A7
:104AF000C4F8A810E1680968B1F1EF3F0AD1216953
:104B0000D1F80110B1F1EF3F04D1D4F8A810E26858
:104B1000914207D280F31088200001F0F7FDEFF3F7
:104B2000108072B6D4F8A81051F8041CB1F1EF3F10
:104B300007D080F31088200001F0F8FDEFF310801B
:104B400072B680F310885FF080500A490860EFF376
:104B50000580002804D1EFF3108062B680F310883E
:104B600010BD00BF60D8FF1FC8D7FF1FCCD7FF1FE5
:104B70004452485404ED00E02DE9FE4F05000C00BE
:104B800092469B46DDF830800D9F00263900EF22CB
:104B9000C1464846FFF762FEBF08BF003F1F18F13D
:104BA000030080088000804500D03F1FDDF8408072
:104BB000DDF83890CDF800B0CDF804A08246B821D9
:104BC0000022AB465846FFF749FEAC620198686484
:104BD0000098A864C5F80CA06F61C5F82C90C5F8C2
:104BE0009490C5F81880C5F81C802020C5F89C005A
:104BF0000AEB0700401E28610F98814505D0002070
:104C0000E8630020C5F8980003E0C5F83C90C5F8BB
:104C100098900320286333486865AD6532492800C1
:104C200001F0C6FDA868C5F8A800EFF3108172B6C0
:104C30002E4828602E480068002806D12D480560BF
:104C4000C5F88850C5F88C500BE02A480068D0F8A9
:104C50008C20C0F88C50C2F88850C5F88C20C5F85C
:104C600088001198224A1268521C214B1A60224A6D
:104C70001268521C204B1A6001281DD11F4802687F
:104C8000EFF305800243B2F1F03F07D31C480468FC
:104C9000002C04D0E66BE06AE06300E0002481F3BE
:104CA000108801F0A7FDC5F89000280001F03AFE39
:104CB000002C13D0E66311E081F3108801F09AFD17
:104CC000C5F89000EFF3108072B60B490968491ED1
:104CD000094A116080F31088FFF7F0FE0020BDE85C
:104CE000FE8F00BF65440100CD3F0100445248548F
:104CF000D4D7FF1FD0D7FF1F60D8FF1FD882FF1F58
:104D0000CCD7FF1F10B5EFF3108372B61E490C68A5
:104D1000002C03D183F31088132033E01B4909686A
:104D2000EFF305821143002903D083F31088132089
:104D300028E017498C4203D183F31088132021E027
:104D4000002803D183F3108800201BE01149096873
:104D5000002903D083F31088132013E0042121637A
:104D60000121A1630021C4F88410E06409480068AF
:104D7000401C0849086083F31088200001F024FFDC
:104D8000D4F8840010BD00BFC8D7FF1FD882FF1F12
:104D90000CD9FF1F60D8FF1F010049B2002908D4B9
:104DA000012210F01F018A40474940B2400941F8F2
:104DB00020207047020052B2002A04D40901434A5D
:104DC00040B2115407E00901414A40B210F00F000F
:104DD000104400F8041C704780B5012181403D4A11
:104DE00011603D490200D2B251F82210002904D0CE
:104DF0003949C0B251F82000804701BD80B500207C
:104E0000FFF7EAFF01BD80B50120FFF7E5FF01BD17
:104E100080B50220FFF7E0FF01BD80B50320FFF75A
:104E2000DBFF01BD5FF08C402C49086001202C495C
:104E30000860704738B504002000C0B2042836DA94
:104E4000284800680125A540A843264D28603C203D
:104E5000414325482500EDB22D0141510120224951
:104E60002500EDB22D0129448860DBB2002B1ED055
:104E700004980100002904D017492300DBB241F84F
:104E80002300D2B2110019482200D2B28056FFF797
:104E900091FF16482100C9B24056FFF77DFF114827
:104EA0000068012111FA04F404430E48046031BD86
:104EB0000100C9B2042901DB002004E00A49C0B2A4
:104EC000000108444068704700E100E000E400E0B1
:104ED00018ED00E00C7003405C93FF1FDC500640AF
:104EE0000870034010700340207003408481FF1F4E
:104EF000BBBBE1B1B2F5803F80F07E80022A1ED9B3
:104F00008C46B1FBF2F102FB11C31B0443EA1043D0
:104F1000B3FBF2FC02FB1C3380B240EA0343B3FB59
:104F2000F2F002FB103240EA0C4000237047022AE4
:104F300005D98446B0FBF2F002FB10C270474AB1BB
:104F400005D100F0010249085FEA300070470022F5
:104F50000023704701F05ABF0B000200002100201F
:104F60007047904271EB030CF6D3B3F5803F2FD21C
:104F7000F0B5B3FA83F7B1FA81F4A7F10F0E3D1B38
:104F80005340CEF1200602FA0EF2F3415340B5F140
:104F90000F0746D80F3C2C444140C4F12006A040E6
:104FA000F1414140B1FBF3F603FB1611A2FB0645AC
:104FB000001BA94102D2761E8018594180EA0102E5
:104FC00021FA0EF362FA0EF200215A403046F0BD8B
:104FD00030B4B1FBF3FC03FB1C11A2FB0C45001B1E
:104FE000A94103D2ACF1010C8018594130BC0246F2
:104FF0000B46604600217047B2F1807F65D3F0B563
:10500000B2FA82F7B1FA81F4C7F10F063D1B22FA1A
:1050100006F307F1110EF24120355A40B5F10F07A2
:10502000B8D94140C4F12006A040F1414140B1FB54
:10503000F3FC03FB1C11A2FB0C45001BA94103D28E
:10504000BCF1010C801859410F2F12D30F3FC90337
:1050500041EA5041B1FBF3F603FB1611A2FB0645F2
:10506000D4EBC030A94102D2761E8018594146EADD
:10507000CC3C07B34140C7F12006B840F141414064
:10508000B1FBF3F603FB1611A2FB0645001BA94179
:1050900002D2761E8018594180EA010221FA0EF3ED
:1050A000C7F1200462FA0EF20CFA07F05A402CFA0B
:1050B00004F13043F0BD80EA010221FA0EF3002131
:1050C00062FA0EF260465A40F0BD8C46B1FBF2F136
:1050D00002FB11C31B0243EA1063B3FBF2FC02FBA9
:1050E0001C331B024CEA002043EA1063B3FBF2FCC2
:1050F00002FB1C331B024CEA002043EA1063B3FBA3
:10510000F2FC02FB1C331B024CEA002043EA106352
:10511000B3FBF2FC02FB1C324CEA00200023704778
:105120002DE9F04105000F0016000024002D01D1EB
:105130001C2430E0342B01D01C242CE0EFF3108031
:1051400072B626490968491C244A116080F3108808
:105150002348D0F80080002002E0D8F82080401CCE
:1051600020490968884201D24545F6D1EFF3108005
:1051700072B61A490968491E184A116080F31088EE
:10518000FFF79CFC454501D11C2404E0012E02D010
:10519000002E00D01F24002C15D11348006813499D
:1051A000884200D1132412480068EFF305810843B8
:1051B000002808D00E480168EFF305800143B1F1E3
:1051C000F03F00D21324002C05D132003900280012
:1051D00001F01EFE04002000BDE8F08160D8FF1F32
:1051E000B0D7FF1FB4D7FF1FC8D7FF1F0CD9FF1FB1
:1051F000D882FF1F10B502000020002A01D11C2018
:1052000016E01368164CA34201D01C2010E00029C0
:105210000ED0144B1B68EFF305842343002B01D001
:10522000042005E0104B1B68104CA34200D1042061
:1052300000280FD10B4B1B68EFF305842343002B91
:1052400008D0084B1C68EFF305831C43B4F1F03F12
:1052500000D21320002802D1100001F011FE10BD71
:105260004554554DD882FF1FC8D7FF1F0CD9FF1FCB
:1052700080B50021002801D11C2115E002680E4BE9
:105280009A4201D01C210FE00C4A1268EFF305830B
:105290001A43002A08D0094A1368EFF30582134322
:1052A000B3F1F03F00D21321002902D101F076FEC4
:1052B0000100080002BD00BF4554554DD882FF1FB4
:1052C00008B584B00023039300290EBF0193019019
:1052D000491E0291009301A904AB07487844183095
:1052E000FDF732FA019909B100220A70002858BF6F
:1052F000039805B000BD00BF47CBFFFF00000000D2
:10530000401E00BF00BF00BF0028F9DC00BF00BF87
:1053100000BF00BF7047E100C9B202788A421AB1EB
:105320001CBF10F8012FF9E718BF00207047F100EB
:1053300080B500B906A005490B681BB122220021E7
:10534000984701E001F044FF222002BDD4DFFF1F97
:10535000636F6E73747261696E742068616E646CE1
:1053600065723A20626164206D65737361676500E0
:10537000C9B2830706D0521E22D310F8013B9942CE
:10538000F7D11FE0083A13D302F1040241EA0121E8
:1053900041EA014150F8043B121F21BF4B40A3F1E9
:1053A000013C2CEA030C1CF0803FF3D0C9B2001F73
:1053B000083210F8013B521E28BF91EA030FF8D8BB
:1053C00018BF0120401E704710B5144600F002F8C7
:1053D000226010BDC1F30A5343B14A0012F5001F09
:1053E00028D2A3F2FE32A1EB0251704750EA410CE1
:1053F00020D001F0004C31EA0C01B1FA81F204BF77
:10540000B0FA80F3D2180B3AB2F120032CBF00FAA5
:1054100003F1914041EA0C013EBFC2F1200C20FA99
:105420000CF319439040524240F2FD33D21A01EB83
:10543000035170470022704741EA030C50EA4C0CBC
:1054400052EA0C0C4FF4001C09D307D01CEB410F9F
:105450009CBF1CEB430F8B4208BF824270471CEB82
:10546000430FFBD8994208BF9042704741EA030CB2
:1054700050EA4C0C52EA0C0C4FF4001C09D307D034
:105480001CEB410F9CBF1CEB430F994208BF90429D
:1054900070471CEB410FFBD88B4208BF824270471C
:1054A000124254D440F2FF7C1CEA11530FD06345E2
:1054B00031D09B1863453CBF01EB0251704701F0AE
:1054C000004141EA0C510020AFF30080704750EAE0
:1054D000410320D001F0004C91EA0C011CD0B1FA3C
:1054E00081F30B3B9A420DD9D21A994051EA0C0133
:1054F000C3F1200C20FA0CFC61449840531C40F28C
:10550000FF7CD7E7914041EA0C01C2F1200C20FA60
:105510000CF3194390407047B0FA80F31533202BF9
:10552000E0D3202AEED3203A203B9A4209D9D21A5E
:1055300000FA03F141EA0C010020531C40F2FF7C09
:10554000B8E700FA02F141EA0C010020704752422C
:1055500040F2FF7C1CEA11530DD06345DBD0B2EB67
:10556000030C3CBFA1EB025170470CF1010221EA90
:10557000035141F4801150EA410CCCD001F0004CB1
:10558000352A27DC30B481EA0C01B2F1200309DAB4
:10559000C2F12003044601FA03F5D0402843D1406C
:1055A0009C400CE0C3F12002450020FA03F418BF30
:1055B00044F0010421FA03F091400C43002174F1FE
:1055C000004550F1000051EB0C01244230BC7FF447
:1055D0007BAF70476146002076E71819C1F30A5384
:1055E00040F21E42D31A0CDDCA0283F3070342EADB
:1055F000505242F00042DA4002EBE17282EAE1707E
:1056000070476FEAE17203F2E13008B182F00040C6
:105610007047FEE710F0004160B148BF4042B0FA69
:1056200080F29040D21CC2F5846241EA025202EB41
:10563000D02140057047FEE770B491EA030F4FF0A8
:10564000004540F1BF806B40841A71EB030604D221
:105650006E40001BB141121973414FF4001C1CEB4A
:10566000410F34BF7CEB430683E00C0DA4EB1356D3
:10567000362E00F37C80012E45EAC32341DC43EA49
:10568000525312BFD20292025B08240545EAC1219F
:1056900041EA5051D2EBC020994125D407D1B0FA4C
:1056A00080F610FA06F162D00020203608E0B1FA48
:1056B00081F6B140C6F1200220FA02F21143B04057
:1056C0004FEAF474B4EB465434F001064FEA740424
:1056D0000AD8D6F50016760D04F00044F04061FAC1
:1056E00006F25040F1404840C00A40EA415021F0E3
:1056F000004128BF5FEA500550F1000044EBD12182
:1057000035E0DB0A45EAC121C90AB6F120050EDD04
:1057100042EA0242120CC5F1200603FA06F6EB40FB
:1057200042EA06056D42984161F100010DE062FA1E
:1057300006F5F240554063FA06FC82EA0C02F3409B
:105740005A406D42904161EB030111F4801F05D175
:10575000641E620502D06D004041494121F4801170
:10576000430875F1004350F1000041EB045170BC57
:1057700070471CEB410F15D223F0004352EA430659
:105780000BD04FEA4C0CBCEB410F04D80C0D661E3D
:10579000342EB7DDEBE7801A994150EA410608BF85
:1057A0000021E4E708BF1CEB430F28BF6FF00001A6
:1057B000DDE7000070B491EA030F4FF000457FF57C
:1057C00043AF6B40841A71EB030603D2001BB14157
:1057D000121973414FF4001C1CEB410F34BF7CEBDA
:1057E000430442E00C0DA4EB1356352E4FDC45EA82
:1057F000C323DB0A45EAC121C912B6F120050DDD3C
:1058000063FA05F6EB4086EA0305124218BF45F03D
:105810000105C01851F100010CD213E062FA06F53F
:10582000F2405540F3415A40B340F3405A4080188B
:10583000594107D349085FEA30005FEA350528BFC0
:1058400045F0010501F58011420875F1004250F163
:10585000000041EB04514E0016F5001F70BC38BF2C
:1058600070470020090D090570471CEB410F10D24D
:1058700052EA43060BD0BCEB410F05D80C0DAB43ED
:10588000661E342EB6DD02E0AB438018594170BC71
:10589000704770BC7047FEE7F0B540F2FF7581EAD3
:1058A000030C0CF0004C15EA11541DBF15EA1357F8
:1058B000AC42AF42E5E0BC41C1F31301C3F31303B3
:1058C000801A994143F4801304D2641E00184941A0
:1058D00080185941C90241EA5051B1FBF3F603FB6C
:1058E0001611A2FB0675D7EBC020A94102D2761E85
:1058F00080185941C90241EA5051B1FBF3FE03FB44
:105900001E11A2FB0E75D7EBC020A94103D2AEF148
:10591000010E80185941890241EA9051760546EA04
:105920008E2EB1FBF3F603FB1611A2FB0675D7EB27
:105930008020A94102D2761E80185941C90241EA4D
:1059400050514EEA060EB1FBF3F603FB1611A2FB13
:105950000675D7EBC020A94102D2761E80185941A6
:10596000C90241EA5051B1FBF3F703FB1711A2FB47
:105970000735D3EBC020A94167F100070CBF0042F7
:1059800047F0010766F3D5274FEA1E31B80814F532
:10599000806412DDBD0775F1004250EB0E5051EBF3
:1059A000045111F5801F5CBF41EA0C01F0BD4CF0C1
:1059B0007F6141F0E0410020F0BDBD076D0840EA85
:1059C0000E5041F48011D4F10104B4F120060ADA3A
:1059D000C4F120060200E04001FA06F3E14018435A
:1059E000B24015430EE0342C13DCC6F1200445EA26
:1059F00040056D0820FA06F2154321FA06F0A14091
:105A00000D43002175F1004250F1000051EB0C01F3
:105A1000F0BD00205FEA0C01F0BDCFB992185B41E8
:105A2000B3FA83F704BFB2FA82F6BF190B3FB7F19E
:105A300020062FBF02FA06F3BB40C7F1200622FA68
:105A400006F638BF3343BA401CB1E419641E33E78D
:105A50007F4231F00041B1FA81F404BFB0FA80F620
:105A6000A4190B3CB4F120062FBF00FA06F1A140A7
:105A7000C4F1200620FA06F638BF3143A0403C1B93
:105A80001AE7AC421ABF05EA1357AF4212E050EAD8
:105A900041061CBF52EA4306BFE750EA41073046C1
:105AA00061461CBF41EA0551F0BD52EA430C08BFF4
:105AB000C143F0BD00204FF4001616EB410F98BF14
:105AC00016EB430F08BF16EB410F24BFC14305E09F
:105AD00016EB430F0CBF61464CEA0551F0BDFEE7E3
:105AE000400D40F21E4C40EAC120BCEB115C40F07E
:105AF000004003D48CF30701C84070476FEAE1709F
:105B00007047FEE750B1B0FA80F18840C91CC1F57A
:105B10008461090501EBD0214005704701467047BB
:105B200030B540F2FF7C1CEA11541DBF1CEA13552E
:105B3000644565453FE0641981EA030C6FF35F53E8
:105B40000CF0004C43F48013C90241F0004141EADB
:105B5000505EC5021100A5FB020200284FF00000B4
:105B6000EEFB01204FF00001E3FB052118BF42F0DE
:105B70000102401800214941E3FB0E01A4F58064B5
:105B80000D0302D292184041494154F1010470DDE5
:105B9000450872F1004250F1000051EB0451A1F5AB
:105BA000801102D441EA0C0130BD40F2FF7E4CEA84
:105BB0000E51002030BD0CEA1355644518BF6545F1
:105BC00081EA030C0CF0004C41D050EA410E1CBF9E
:105BD00052EA430E02E06146002030BD24422C44CC
:105BE0001BD15FEA050EF6D0090302BF0146002073
:105BF000AEF1140EB1FA81F5AEEB050401FA05FE23
:105C00000C35C5F1200100FA05F5C8404EEA000E3A
:105C10006FF35F5343F480139CE733F00043B3FA10
:105C200083F504BFB2FA82FE75440B3D641BB5F1E7
:105C3000200E2FBF02FA0EF3AB40C5F1200E22FA60
:105C40000EFE38BF43EA0E03AA40641C7CE750EA0C
:105C5000410E14BF52EA430E6FF000014FF40015DD
:105C600015EB430F8EBF194615EB410F9DE7B4D8D6
:105C700030BDD4F10104B4F120050FDAC4F12005E0
:105C8000520828BF42F0010210FA05FE01FA05F59C
:105C90007244E2BFE0402843E1400FE0352C9ADC3B
:105CA000C5F1200452EA400220FA05F218BF42F082
:105CB000010231FA05F0A1400A43002172F10042CD
:105CC00050F1000051EB0C0130BDFEE72DE9FC4F17
:105CD00085B00BB100241C600290824601E00AF1FD
